:020000040000fa
:080000000002040000000000f2
:020000040000fa
:100400000f2221000e7f22000e0188000000000054
:100410000c000700003d280001002000110007002b
:10042000000020000000e000020032000000020096
:10043000000000009a320200000000000040da00d4
:100440000000fe004440a900609020000000e00091
:100450000300320000002000a00188004440a800f2
:100460000000060091018800800078000000eb0089
:1004700015003700e280400032a0b4009101ba00bc
:10048000e280400032a0b4009102ba00e280400055
:1004900032a0b4000002eb00472bde00f507b200eb
:1004a000602ce10004003a000059eb008301e900f0
:1004b000fdff3e00040037006128e100010032002a
:1004c0000082eb00040007001101ba000200e00006
:1004d000e8ff3a00000006003159ba008301e90044
:1004e0000c0032002159ba008301e90008003200f3
:1004f0000400e00003003a00e280400032a0b400b3
:10050000f5ff370011d9ba008301e900faff3a007c
:100510008100e800e180400032a0b4000000060045
:1005200000000000000000000000000000000000cb
:1005300000000000000000000000000000000000bb
:1005400000000000000000000000000000000000ab
:10055000000000000000000000000000000000009b
:10056000000000000000000000000000000000008b
:10057000000000000000000000000000000000007b
:10058000000000000000000000000000000000006b
:10059000000000000000000000000000000000005b
:1005a000000000000000000000000000000000004b
:1005b000000000000000000000000000000000003b
:1005c000000000000000000000000000000000002b
:1005d000000000000000000007e2a9009600a9004a
:1005e0009620a9008600a9008620a9000000060028
:1005f00017e2a9009a20a9009a40a9008a20a90020
:100600008a40a9000000060006c2bf000008a3003f
:10061000fdff3a0006c2bf000018a300faff3a002f
:1006200006c2bf000028a300f7ff3a0006c2bf00c1
:100630000038a300f4ff3a0006c2bf000048a30040
:10064000f1ff3a0009c2bf000068a300eeff3a00c4
:100650000000060016c2bf000008a300fdff3a001c
:1006600016c2bf000018a300faff3a0016c2bf006e
:100670000028a300f7ff3a0016c2bf000038a3000d
:10068000f4ff3a0016c2bf000048a300f1ff3a0091
:1006900019c2bf000068a300eeff3a000000060088
:1006a000889fbe008a9fbe008c9fbe008005780098
:1006b0008106780002067800800478000005eb00cf
:1006c000150037000662a8000004eb0003003700a5
:1006d0008c0f5400130031000804e800620007008a
:1006e0000004e000faff32000010800080767d00f8
:1006f0008904e90002003a0006a2a80001003700c0
:1007000006a2a9000682a80006c2bf000048a300f6
:10071000fdff3a000a05e8008b0f5500e9ff3a009b
:100720008004eb00090078004f06be004f05be00b4
:100730004f04be0000000600889fbe008a9fbe00d6
:100740008c9fbe0080057800810678000206780044
:10075000800478000005eb00150037001662a80041
:100760000004eb00030037008c0f5400130031002d
:100770000804e800400007000004e000faff32002f
:100780008010800080767d008904e90002003a0034
:1007900016a2a8000100370016a2a9001682a80020
:1007a00016c2bf000048a300fdff3a000a05e8009a
:1007b0008b0f5500e9ff3a008004eb000900780038
:1007c0004f06be004f05be004f04be0000000600ed
:1007d0000080fb001010880008c2bf0001c8b300f1
:1007e000014060000080fb000000e9004f00de00d7
:1007f0000000e900000006000080fb009010880067
:1008000018c2bf0001c8b300014060000080fb00b7
:100810000000e9004f00de000000e90000000600d3
:10082000211088003010880000000600a110880008
:10083000b0108800000006000622a8000000060094
:100840001622a800000006000602a800000006000c
:100850001602a800000006000642a80000000600dc
:100860001642a8000000060008c2bf000000d10028
:10087000610060000000060018c2bf000000d10047
:1008800061006000000006006022b800060220003f
:100890000000d0008180d2000482d2008582d20084
:1008a0000000a0000202520083825a0003003100bf
:1008b0000202420083824a000000a1000603e90010
:1008c000f3ff3a00000006008001eb000200370051
:1008d00061f079008301e800828f5100fcff3a004b
:1008e0000000060000027800808f50000a003100ee
:1008f00082814000808f51000700360002024000d4
:100900008000eb00436278008100e800828f500095
:1009100007003200fbff37000200e0000400320055
:1009200002814000315a7800828f5000fdff3a006a
:10093000000006008001eb000200370081717800a2
:100940008301e800828f5100fcff3a00000006009e
:10095000800078003004e000feff3a000100500003
:080960000000e90000000600a0
:020000040000fa
:020000040001f9
:0457f00033ff000083
:020000040000fa
:020000040001f9
:0457f400c0fc0000f5
:020000040000fa
:020000040001f9
:0457f800af89000075
:020000040000fa
:020000040001f9
:0457fc00603f00000a
:020000040000fa
:10000800d0870000d0870000d0870000d08700008c
:10001800d0870000d0870000d0870000d08700007c
:10002800d08700006c6a0000d0870000607e000066
:10003800d0870000d0870000d0870000d08700005c
:10004800d0870000d0870000d0870000d08700004c
:10005800d0870000d0870000d0870000d08700003c
:10006800d0870000d0870000d0870000d08700002c
:10007800d0870000d0870000d0870000d08700001c
:10008800d0870000d0870000d0870000d08700000c
:10009800d0870000d0870000d0870000d0870000fc
:1000a800d0870000d0870000d0870000d0870000ec
:1000b800d0870000d0870000d0870000d0870000dc
:1000c800d0870000d0870000d0870000d0870000cc
:1000d800d0870000d0870000d0870000d0870000bc
:1000e800d0870000d0870000d0870000d0870000ac
:1000f800d0870000d0870000d0870000d08700009c
:10010800d0870000d0870000d0870000d08700008b
:10011800d0870000d0870000d0870000d08700007b
:10012800d0870000d0870000d0870000d08700006b
:10013800d0870000d0870000d0870000d08700005b
:10014800d0870000d0870000d0870000d08700004b
:10015800d0870000d0870000d0870000d08700003b
:10016800d0870000d0870000d0870000d08700002b
:10017800d0870000d0870000e8250000d087000065
:10018800d0870000d0870000d0870000d08700000b
:10019800d0870000d0870000d0870000d0870000fb
:1001a800d0870000d0870000d0870000d0870000eb
:1001b800d0870000d0870000d0870000d0870000db
:1001c800d0870000d0870000d0870000d0870000cb
:1001d800d0870000d0870000d0870000d0870000bb
:1001e800d0870000d0870000d0870000d0870000ab
:0801f800d0870000d087000051
:020000040000fa
:10020800d0870000d0870000d0870000d08700008a
:10021800d0870000d0870000d0870000d08700007a
:10022800d08700006c6a0000d0870000607e000064
:10023800d0870000d0870000d0870000d08700005a
:10024800d0870000d0870000d0870000d08700004a
:10025800d0870000d0870000d0870000d08700003a
:10026800d0870000d0870000d0870000d08700002a
:10027800d0870000d0870000d0870000d08700001a
:10028800d0870000d0870000d0870000d08700000a
:10029800d0870000d0870000d0870000d0870000fa
:1002a800d0870000d0870000d0870000d0870000ea
:1002b800d0870000d0870000d0870000d0870000da
:1002c800d0870000d0870000d0870000d0870000ca
:1002d800d0870000d0870000d0870000d0870000ba
:1002e800d0870000d0870000d0870000d0870000aa
:1002f800d0870000d0870000d0870000d08700009a
:10030800d0870000d0870000d0870000d087000089
:10031800d0870000d0870000d0870000d087000079
:10032800d0870000d0870000d0870000d087000069
:10033800d0870000d0870000d0870000d087000059
:10034800d0870000d0870000d0870000d087000049
:10035800d0870000d0870000d0870000d087000039
:10036800d0870000d0870000d0870000d087000029
:10037800d0870000d0870000e8250000d087000063
:10038800d0870000d0870000d0870000d087000009
:10039800d0870000d0870000d0870000d0870000f9
:1003a800d0870000d0870000d0870000d0870000e9
:1003b800d0870000d0870000d0870000d0870000d9
:1003c800d0870000d0870000d0870000d0870000c9
:1003d800d0870000d0870000d0870000d0870000b9
:1003e800d0870000d0870000d0870000d0870000a9
:0803f800d0870000d08700004f
:020000040000fa
:1009680041530000333900003131000020460000b7
:1009780057200000763100002e3000002e35000090
:100988002028000042750000696c0000743a0000dd
:10099800204a0000616e0000203100003320000072
:1009a800323000003134000020310000333a0000ba
:1009b800333000003a33000039290000000a0000f3
:1009c80000520000454700003a200000307800003f
:1009d80025680000687800003a20000030780000a0
:1009e80025680000687800000a00000054650000cf
:1009f8007374000020520000454700003a200000b0
:100a08003078000025680000687800003a2000006f
:100a18003078000025680000687800000a000000af
:100a2800454d0000563a0000206100006e6100004c
:100a38006c6f00006720000073650000747400008c
:100a4800696e0000677300003a200000002500006e
:100a58006868000078000000454d0000563a000024
:100a680020670000616900006e20000072650000c8
:100a78006475000063740000696f00006e20000058
:100a880074610000626c0000652000006c65000065
:100a98006e67000074680000202500006868000088
:100aa800640a0000004500004d5600003a2000008e
:100ab80067610000696e000054610000626c00000c
:100ac800655b0000256400005d2000003d200000fb
:100ad8003078000025680000687800002c200000ad
:100ae8003078000025680000687800000a000000df
:100af800454d0000563a000020750000736900005b
:100b08006e670000206600006978000065640000d8
:100b180020670000616900006e2000007265000017
:100b28006475000063740000696f00006e0a0000bd
:100b3800004500004d5600003a2000007573000083
:100b4800696e00006720000074610000626c00009c
:100b580065200000626100007365000064200000e9
:100b680067610000696e0000207200006564000083
:100b780075630000746900006f6e00000a000000d1
:100b8800454d0000563a00002045000072720000f2
:100b98006f7200003a200000756e00006b6f000055
:100ba800776e00002061000064610000707400002e
:100bb800697600006520000067610000696e00002a
:100bc800206d00006f64000065200000627900005d
:100bd800746500003a2000003078000025680000a5
:100be800687800000a000000454d0000563a0000f1
:100bf80020750000736900006e6700002066000021
:100c08006978000065640000206100006d20000024
:100c180064720000697600006572000020730000ad
:100c280074720000656e00006774000068200000a0
:100c380025680000687800000a000000454d0000a3
:100c4800563a000020750000736900006e670000c6
:100c580020610000757400006f6d00006174000071
:100c680069630000206d00006f640000756c00006f
:100c780061740000696f00006e2000006465000068
:100c88007074000068200000616400006a7500004c
:100c9800737400006d6500006e7400000a000000a7
:100ca800454d0000563a000020610000646a0000cb
:100cb80075730000746d0000656e000074200000fc
:100cc80074610000726700006574000020760000ff
:100cd800616c0000756500003a200000256800007e
:100ce800685800000a000000454d0000563a000010
:100cf800207000006f730000742000006164000021
:100d08006a750000737400006d6500006e74000061
:100d180020640000656c0000617900003a20000042
:100d280025680000687800000a000000454d0000b2
:100d3800563a000020750000736900006e670000d5
:100d480020740000616200006c65000020620000f1
:100d58006173000065640000206d00006f6400008e
:100d6800756c000061740000696f00006e2000005f
:100d78006465000070740000682000006164000071
:100d88006a750000737400006d6500006e740000e1
:100d98000a000000454d0000563a0000206d000092
:100da8006f640000756c000061740000696f0000da
:100db8006e20000064650000707400006820000068
:100dc800616400006a750000737400006d650000be
:100dd8006e74000020740000616200006c65000001
:100de800206c0000656e0000677400006820000039
:100df80025680000686400000a000000454d0000f6
:100e0800563a0000206d00006f640000756c000009
:100e180061740000696f00006e5400006162000098
:100e28006c6500005b250000645d0000203d00004b
:100e3800203000007825000068680000782c000049
:100e4800203000007825000068680000780a00005b
:100e580000450000727200006f7200003a20000026
:100e6800756e00006b6f0000776e0000204900006f
:100e7800534f000031340000343400003342000086
:100e8800206d00006f640000756c00006174000044
:100e9800696f00006e200000646500007074000037
:100ea800682000006d6f000064650000206200008b
:100eb80079740000653a00002030000078250000b1
:100ec80068680000780a0000004500004d560000e0
:100ed8003a2000007365000074740000696e000019
:100ee8006773000020610000707000006c690000ea
:100ef800656400000a00000052450000473a0000ff
:100f0800203000007825000068680000783a00006a
:100f18002073000065740000207400006f2000003a
:100f28003078000025680000687800000a0000009a
:100f3800457800006563000075740000696e000064
:100f48006720000064690000726500006374000097
:100f5800206300006f6d00006d6100006e6400008a
:100f6800203000007825000068680000780a00003a
:100f780000000000454d0000563a000020640000c3
:100f88006561000063740000697600006174000008
:100f9800696e000067200000636100007272000043
:100fa80069650000720a0000004500004d56000007
:100fb8003a20000061630000746900007661000057
:100fc800746900006e670000206300006172000011
:100fd80072690000657200000a000000454d0000bb
:100fe800563a000020630000617200007269000038
:100ff80065720000206e00006f7400002061000020
:101008006374000069760000617400006564000084
:10101800210a0000004500004d5600003a2000005b
:10102800736900006e6700006c65000020700000a6
:101038006f6c00006c0a0000004500004d5600006f
:101048003a200000726500007365000074690000b2
:101058006e670000206f000070650000726100007c
:10106800746900006e670000206600006965000072
:101078006c6400000a000000454d0000563a00006c
:101088002057000055500000410a000000450000ac
:101098004d5600003a200000000a000000450000fc
:1010a8004d5600003a200000746900006d6500008c
:1010b8006f7500007420000065720000726f0000f8
:1010c800720a0000004500004d5600003a2000005a
:1010d800627500006666000065720000206f0000ff
:1010e80076650000726600006c6f000077200000d3
:1010f80065720000726f0000720a0000004500006f
:101108004d5600003a20000074720000616e000025
:10111800736d000069730000736900006f6e000052
:1011280020650000727200006f7200000a00000063
:10113800454d0000563a000020660000756e00001c
:1011480063740000696f00006e2000006361000096
:101158006c6c00002070000061720000616d00007e
:10116800657400006572000020650000727200005e
:101178006f7200000a000000454d0000563a00005a
:101188002057000055500000420a000000450000aa
:101198004d5600003a2000006361000072640000b0
:1011a80020730000656c0000656300007465000032
:1011b80064200000004500004d5600003a20000061
:1011c8006361000072640000206100006374000025
:1011d8006976000061740000656400000a00000080
:1011e800454d0000563a000020730000746100006d
:1011f80072740000696e00006720000070720000c1
:1012080065760000616c000069640000617400008c
:10121800696f00006e20000061700000706c0000b3
:101228006963000061740000696f00006e2e0000a1
:101238000a000000454d0000563a000020700000ea
:1012480072650000766100006c690000646100004e
:10125800746900006f6e000020610000707000006b
:101268006c69000063610000746900006f6e000023
:1012780020660000696e0000697300006865000060
:10128800642e00000a000000454d0000563a000098
:101298002070000072650000766100006c69000033
:1012a80064610000746900006f6e00002061000036
:1012b800707000006c6900006361000074690000d0
:1012c8006f6e000020730000746f000070700000e3
:1012d800656400002e0a0000004500004d5600001d
:1012e8003a20000073740000617200007469000005
:1012f8006e670000206400006967000069740000e0
:10130800616c000020610000707000006c690000d2
:1013180063610000746900006f6e00002e0a00000f
:10132800004500004d5600003a20000064690000a6
:1013380067690000746100006c20000061700000a3
:10134800706c00006963000061740000696f000040
:101358006e200000666900006e6900007368000076
:10136800656400002e0a0000004500004d5600008c
:101378003a20000064690000676900007461000099
:101388006c20000061700000706c00006963000050
:1013980061740000696f00006e2000007374000023
:1013a8006f70000070650000642e00000a000000e5
:1013b800496e000069740000696100006c690000f2
:1013c8007a610000746900006f6e000020660000fa
:1013d800616900006c650000642000000a000000dc
:1013e800496e000069740000696100006c690000c2
:1013f8007a610000746900006f6e0000206f0000c1
:101408006b0a00000021000021200000554900005f
:1014180044200000746f00006f2000007368000013
:101428006f720000742e000020410000626f0000ff
:10143800727400002e0a0000002100002120000024
:1014480000520000657600006569000063650000d1
:101458006420000030780000257800002062000039
:101468007974000065200000616e000064200000af
:1014780030780000257800002062000069740000c0
:10148800730000002c2000006578000070650000e3
:1014980063740000656400002034000020620000ce
:1014a8007974000065730000206100006e6400001c
:1014b800203000002062000069740000732e0000d4
:1014c80020410000626f0000727400002e0a0000c4
:1014d80000750000696400003a20000025580000eb
:1014e800255800000a0000004361000072640000f3
:1014f800206e00006f6e0000636500003a20000057
:101508003078000025580000255800000a00000027
:1015180041750000746800002073000074650000c5
:101528007020000031200000537500006363000044
:101538006573000073660000756c00006c0a00009b
:101548000021000021200000726500006365000092
:1015580069760000656400002030000078250000ee
:10156800782000006279000074650000732c000088
:101578002065000078700000656300007465000055
:1015880064200000342000006279000074650000c7
:1015980073200000616e000064200000302000000d
:1015a80062690000747300002e2000004162000090
:1015b8006f720000742e00000a0000002121000054
:1015c800204900006e760000616c0000696400002c
:1015d8002063000061720000642000007265000052
:1015e800737000006f6e0000736500002e2000000d
:1015f800416200006f720000740a000000410000a0
:1016080075740000686500006e740000696300006e
:1016180061740000696f00006e2000006f6b0000ad
:101628002e200000537500006363000065730000fe
:10163800730a0000006d0000696600006172000016
:1016480065530000656e000064520000657100007b
:1016580075650000737400005b2500006868000071
:10166800785d00000a000000256800006878000026
:10167800004500004d5600003a2000006e6f000043
:1016880020650000727200006f7200000a000000fe
:10169800454d0000563a0000206300006f6c0000c2
:1016a8006c690000736900006f6e0000206500001f
:1016b800727200006f7200000a000000454d0000c1
:1016c800563a000020700000726f0000746f00002e
:1016d800636f00006c20000065720000726f0000ec
:1016e800720a0000004500004d5600003a20000034
:1016f80074720000616e0000736d00006973000071
:10170800736900006f6e00002065000072720000af
:101718006f7200000a000000454d0000563a0000b4
:1017280020740000696d0000656f0000757400008a
:1017380020650000727200006f7200000a0000004d
:10174800454d0000563a0000206900006e74000004
:10175800657200006e6100006c2000006572000078
:10176800726f0000720a0000004500004d5600002c
:101778003a200000737400006f700000706500006c
:101788006420000065720000726f0000720a000099
:10179800004500004d5600003a200000756e00001c
:1017a8006b6f0000776e0000206500007272000009
:1017b8006f720000206300006f640000650a00007b
:1017c800004500004d5600003a200000506f000010
:1017d8006c6c0000696e0000672000002e2e00006f
:1017e8002e0a0000004500004d5600003a20000077
:1017f800526500006d6f00007665000020630000f0
:1018080061720000642000002e2e00002e0a0000e5
:10181800004500004d5600003a200000756e00009b
:101828006b6f0000776e0000206d0000657300008c
:101838007361000067650000206300006f640000aa
:10184800650a0000004500004d5600003a200000df
:10185800432d0000415000004455000020000000c6
:101868000a000000454d0000563a000020520000d2
:101878002d410000504400005520000000000000e9
:101888001201000000020000000000000008000033
:101898002513000002c80000020000000102000039
:1018a80000010000090200002900000001010000f9
:1018b80000c00000fa090000040000000002000057
:1018c80003000000000000000921000011010000d1
:1018d80000010000221d0000000700000581000033
:1018e800034000000001000007050000010300009c
:1018f800400000000100000004030000090400008b
:101908000e030000610000006d000000730000007d
:1019180020000000410000004700000022030000f2
:1019280041000000530000003300000039000000af
:1019380031000000310000002000000045000000d8
:101948004d0000005600000020000000420000008a
:101958006f000000610000007200000064000000d9
:1019680006000000ff09000001a1000001190000a5
:10197800012900004015000000260000ff000000bb
:101988007508000095400000810000001901000062
:101998002940000091000000c0000000568c0000a3
:1019a800808c0000848c0000928c00006c69000020
:1019b8006d690000746900006e670000206c00000b
:1019c8003d25000068780000202c00006d6c0000a8
:1019d8003d250000687800000a00000074720000cd
:1019e800616e0000736d0000697400007469000086
:1019f8006e6700003a2000000025000068780000ab
:101a08002c0000000a000000202000007261000085
:101a1800773a000020000000256800006878000080
:101a28002c000000657800007472000061630000fb
:101a3800746900006e670000200000002065000047
:101a4800787400007261000063740000656400002f
:101a58003a200000000000002568000068780000b7
:101a68002025000068680000782000002568000034
:101a780068780000202500006868000078200000d1
:101a880025680000687800002025000068680000cc
:101a980078200000256800006878000020250000f4
:101aa80068680000780a00000025000068680000e7
:101ab80078200000000a000000000000989e000046
:101ac800000000008eb40000000000000ae80000da
:101ad80057ec0000201b0000581b0000ba1b000038
:101ae800201f000064200000c6220000902400008f
:101af800536f0000667400002066000072610000e9
:101b08006d6900006e6700002065000072720000b9
:101b18006f7200000a00000000a40000040000002a
:101b28000e32000050410000592e000053590000a9
:101b3800532e0000444400004630000031000000ed
:101b480000a40000040000000e3200005041000014
:101b5800592e000053590000532e00004444000041
:0c1b6800463000003100000009090000b8
:020000040000fa
:101b74000a00fa00889fbe003007980041079800c9
:101b84003e009000400090000100200010079800e3
:101b9400210798001e009000ae0090004909dd0066
:101ba4004700de0000007100c708de00610060002d
:101bb4006022b800010020000002720081827200dd
:101bc4001e009000ae0090004a0bdd004600de00cf
:101bd40000007300c608de00610160006000b80008
:101be40003002000020070008380700000004000a9
:101bf4008180480000026a0081826a001e00900011
:101c0400ae0090004b09dd004500de0000007100cd
:101c1400c508de00610160006000b8000300200018
:101c24000200700083807000420bdd00ce00de00f5
:101c3400810073004200dd0000026a0081826a00b4
:101c44001e009000ae0090004c09dd004400de0050
:101c540000007100c408de00610160006000b8008b
:101c6400030020000200700083807000430bdd003d
:101c7400cd00de00810073004300dd0000026a0035
:101c840081826a001e009000ae0090004d09dd00c4
:101c94004300de0000007100c308de006101600043
:101ca4006000b80003002000020070008380700010
:101cb400440bdd00cc00de00810073004400dd0035
:101cc40000026a0081826a001e009000ae0090004b
:101cd4004e09dd004200de0000007100c208de0093
:101ce400610160006000b800030020000200700081
:101cf40083807000450bdd00cb00de0081007300a3
:101d04004500dd0000026a0081826a001e00900026
:101d1400ae0090008100d1000080d300610160001a
:101d24006000b8000300200002007000838070008f
:101d34004609dd00ca00de00810071004600dd00b6
:101d440000026a0081826a001e009000ae009000ca
:101d5400610160006000b800030020000200700010
:101d640083807000470bdd00c900de008100730032
:101d74004700dd0000036a0081836a001e009000b2
:101d8400ae0090004809dd004800de00000071004c
:101d9400c808de004909dd004700de0000007100cc
:101da400c708de00610060006022b8000100200066
:101db40000027200818272001e009000ae0090004a
:101dc4004809dd004800de0000007100c808de009c
:101dd4004a09dd004600de0000007100c608de008e
:101de400610160006000b800030020000200700080
:101df40083807000000040008180480000026a0077
:101e040081826a001e009000ae0090004809dd0047
:101e14004800de0000007100c808de004b09dd0048
:101e24004500de0000007100c508de0061016000ad
:101e34006000b8000300200002007000838070007e
:101e44004209dd00ce00de00810071004200dd00a9
:101e540000026a0081826a001e009000ae009000b9
:101e64004809dd004800de0000007100c808de00fb
:101e74004c09dd004400de0000007100c408de00ef
:101e8400610160006000b8000300200002007000df
:101e9400838070004309dd00cd00de008100710005
:101ea4004300dd0000026a0081826a001e00900087
:101eb400ae0090004809dd004800de00000071001b
:101ec400c808de004d09dd004300de00000071009b
:101ed400c308de00610160006000b8000300200058
:101ee40002007000838070004409dd00cc00de0035
:101ef400810071004400dd0000026a0081826a00f2
:101f04001e009000ae0090004809dd004800de008d
:101f140000007100c808de004e09dd004200de004a
:101f240000007100c208de00610160006000b800ba
:101f34000300200002007000838070004509dd006a
:101f4400cb00de00810071004500dd0000026a0064
:101f540081826a001e009000ae0090004809dd00f6
:101f64004800de0000007100c808de008100d100d6
:101f74000080d300610160006000b800030020000d
:101f840002007000838070004609dd00ca00de0094
:101f9400810071004600dd0000026a0081826a004f
:101fa4001e009000ae0090004809dd004800de00ed
:101fb40000007100c808de00610160006000b80024
:101fc4000300200002007000838070004709dd00d8
:101fd400c900de00810071004700dd0000006a00d6
:101fe40081806a00c808dd000080fd008040780020
:101ff4000040eb0000036b0081836b001e00900027
:10200400ae0090004008de00010020004909dd0018
:102014004700de0000007100c708de0061006000b8
:102024006022b80001002000000272008182720068
:102034001e009000ae0090004008de000100200069
:102044004a09dd004600de0000007100c608de001b
:10205400610160006000b80003002000020070000d
:1020640083807000000040008180480000026a0004
:1020740081826a001e009000ae0090004008de00dd
:10208400010020004b09dd004500de000000710066
:10209400c508de00610160006000b8000300200094
:1020a40002007000838070004209dd00ce00de0073
:1020b400810071004200dd0000026a0081826a0032
:1020c4001e009000ae0090004008de0001002000d9
:1020d4004c09dd004400de0000007100c408de008d
:1020e400610160006000b80003002000020070007d
:1020f400838070004309dd00cd00de0081007100a3
:102104004300dd0000026a0081826a001e00900024
:10211400ae0090004008de00010020004d09dd0003
:102124004300de0000007100c308de0061016000ae
:102134006000b8000300200002007000838070007b
:102144004409dd00cc00de00810071004400dd00a4
:1021540000026a0081826a001e009000ae009000b6
:102164004008de00010020004e09dd004200de00d0
:1021740000007100c208de00610160006000b80068
:102184000300200002007000838070004509dd0018
:10219400cb00de00810071004500dd0000026a0012
:1021a40081826a001e009000ae0090004008de00ac
:1021b400010020008100d1000080d3006101600093
:1021c4006000b800030020000200700083807000eb
:1021d4004609dd00ca00de00810071004600dd0012
:1021e40000026a0081826a001e009000ae00900026
:1021f4004008de0001002000610160006000b800ba
:102204000300200002007000838070004709dd0095
:10221400c900de00810071004700dd0000046a008f
:1022240081846a001e009000ae0090004008de0029
:10223400010020004809dd004800de0000007100b4
:10224400c808de004909dd004700de000000710017
:10225400c708de00610060006022b80001002000b1
:1022640000027200818272001e009000ae00900095
:102274004008de00010020004809dd004800de00bf
:1022840000007100c808de004a09dd004600de00d7
:1022940000007100c608de00610160006000b80043
:1022a40003002000020070008380700000004000e2
:1022b4008180480000026a0081826a001e0090004a
:1022c400ae0090004008de00010020004809dd0057
:1022d4004800de0000007100c808de004b09dd0084
:1022e4004500de0000007100c508de0061016000e9
:1022f4006000b800030020000200700083807000ba
:102304004209dd00ce00de00810071004200dd00e4
:1023140000026a0081826a001e009000ae009000f4
:102324004008de00010020004809dd004800de000e
:1023340000007100c808de004c09dd004400de0026
:1023440000007100c408de00610160006000b80094
:102354000300200002007000838070004309dd0048
:10236400cd00de00810071004300dd0000026a0040
:1023740081826a001e009000ae0090004008de00da
:10238400010020004809dd004800de000000710063
:10239400c808de004d09dd004300de0000007100c6
:1023a400c308de00610160006000b8000300200083
:1023b40002007000838070004409dd00cc00de0060
:1023c400810071004400dd0000026a0081826a001d
:1023d4001e009000ae0090004008de0001002000c6
:1023e4004809dd004800de0000007100c808de0076
:1023f4004e09dd004200de0000007100c208de006c
:10240400610160006000b800030020000200700059
:10241400838070004509dd00cb00de00810071007f
:102424004500dd0000026a0081826a001e009000ff
:10243400ae0090004008de00010020004809dd00e5
:102444004800de0000007100c808de008100d100f1
:102454000080d300610160006000b8000300200028
:1024640002007000838070004609dd00ca00de00af
:10247400810071004600dd0000026a0081826a006a
:102484001e009000ae0090004008de000100200015
:102494004809dd004800de0000007100c808de00c5
:1024a400610160006000b8000300200002007000b9
:1024b400838070004709dd00c900de0081007100df
:1024c4004700dd0000006a0081806a00c808dd0062
:1024d4000080fd00804078000040eb0000006c00ac
:1024e40081806c00c000dd000000200000006b0053
:1024f40081806b0010079800210798000000eb0012
:10250400000f78002c0037001e009000ae009000f1
:1025140000024000818248001e009000ae0090003e
:10252400cf09de00410bdd004f01de000201730024
:102534001e009000ae009000430bdd004d00de0055
:1025440000007300cd08de0000016900818169008c
:102554001e009000ae009000440bdd004c00de0035
:1025640000007300cc08de0000016900818169006d
:102574001e009000ae009000460bdd004a00de0015
:1025840000007300ca08de00000069008180690051
:10259400610160006000b8000300200002007000c8
:1025a4008380700000007200818072001007980020
:1025b400210798001e0fe8009e0078004e0090004e
:1025c400808f5000d0ff39001e009000ae009000b4
:1025d4004909dd004700de0000007100c708de0085
:1025e400610060006022b800010020000002720057
:1025f400818272001e009000ae0090004a0bdd0044
:102604004600de0000007300c608de0061016000c1
:102614006000b80003002000020070008380700096
:10262400000040008180480000026a0081826a0044
:102634001e009000ae0090004b09dd004500de0056
:1026440000007100c508de00610160006000b80090
:10265400030020000200700083807000420bdd0044
:10266400ce00de00810073004200dd0000026a003b
:1026740081826a001e009000ae0090004c09dd00cb
:102684004400de0000007100c408de006101600047
:102694006000b80003002000020070008380700016
:1026a400430bdd00cd00de00810073004300dd003c
:1026b40000026a0081826a001e009000ae00900051
:1026c4004d09dd004300de0000007100c308de0098
:1026d400610160006000b800030020000200700087
:1026e40083807000440bdd00cc00de0081007300a9
:1026f4004400dd0000026a0081826a001e0090002e
:10270400ae0090004e09dd004200de0000007100c2
:10271400c208de00610160006000b8000300200010
:102724000200700083807000450bdd00cb00de00ea
:10273400810073004500dd0000026a0081826a00a6
:102744001e009000ae0090008100d1000080d300f4
:10275400610160006000b800030020000200700006
:10276400838070004609dd00ca00de00810071002c
:102774004600dd0000026a0081826a001e009000ab
:10278400ae009000610160006000b800030020000a
:102794000200700083807000470bdd00c900de007a
:1027a400810073004700dd0000036a0081836a0032
:1027b4001e009000ae0090004809dd004800de00d5
:1027c40000007100c808de004909dd004700de0092
:1027d40000007100c708de00610060006022b800dc
:1027e4000100200000027200818272001e0090002d
:1027f400ae0090004809dd004800de0000007100d2
:10280400c808de004a09dd004600de000000710051
:10281400c608de00610160006000b800030020000b
:102824000200700083807000000040008180480036
:1028340000026a0081826a001e009000ae009000cf
:102844004809dd004800de0000007100c808de0011
:102854004b09dd004500de0000007100c508de0004
:10286400610160006000b8000300200002007000f5
:10287400838070004209dd00ce00de00810071001b
:102884004200dd0000026a0081826a001e0090009e
:10289400ae0090004809dd004800de000000710031
:1028a400c808de004c09dd004400de0000007100b1
:1028b400c408de00610160006000b800030020006d
:1028c40002007000838070004309dd00cd00de004b
:1028d400810071004300dd0000026a0081826a0009
:1028e4001e009000ae0090004809dd004800de00a4
:1028f40000007100c808de004d09dd004300de0061
:1029040000007100c308de00610160006000b800cf
:102914000300200002007000838070004409dd0081
:10292400cc00de00810071004400dd0000026a007a
:1029340081826a001e009000ae0090004809dd000c
:102944004800de0000007100c808de004e09dd000a
:102954004200de0000007100c208de006101600078
:102964006000b80003002000020070008380700043
:102974004509dd00cb00de00810071004500dd006b
:1029840000026a0081826a001e009000ae0090007e
:102994004809dd004800de0000007100c808de00c0
:1029a4008100d1000080d300610160006000b800a4
:1029b4000300200002007000838070004609dd00df
:1029c400ca00de00810071004600dd0000026a00da
:1029d40081826a001e009000ae0090004809dd006c
:1029e4004800de0000007100c808de0061016000dc
:1029f4006000b800030020000200700083807000b3
:102a04004709dd00c900de00810071004700dd00d8
:102a140000006a0081806a00c808dd000080fd00b3
:102a2400804078000040eb0000036b0081836b0062
:102a34001e009000ae0090004008de00010020005f
:102a44004909dd004700de0000007100c708de0010
:102a5400610060006022b8000100200000027200e2
:102a6400818272001e009000ae0090004008de00db
:102a7400010020004a09dd004600de00000071006c
:102a8400c608de00610160006000b8000300200099
:102a940002007000838070000000400081804800c4
:102aa40000026a0081826a001e009000ae0090005d
:102ab4004008de00010020004b09dd004500de0077
:102ac40000007100c508de00610160006000b8000c
:102ad4000300200002007000838070004209dd00c2
:102ae400ce00de00810071004200dd0000026a00b9
:102af40081826a001e009000ae0090004008de0053
:102b0400010020004c09dd004400de0000007100db
:102b1400c408de00610160006000b800030020000a
:102b240002007000838070004309dd00cd00de00e8
:102b3400810071004300dd0000026a0081826a00a6
:102b44001e009000ae0090004008de00010020004e
:102b54004d09dd004300de0000007100c308de0003
:102b6400610160006000b8000300200002007000f2
:102b7400838070004409dd00cc00de008100710018
:102b84004400dd0000026a0081826a001e00900099
:102b9400ae0090004008de00010020004e09dd0078
:102ba4004200de0000007100c208de006101600026
:102bb4006000b800030020000200700083807000f1
:102bc4004509dd00cb00de00810071004500dd0019
:102bd40000026a0081826a001e009000ae0090002c
:102be4004008de00010020008100d1000080d300f5
:102bf400610160006000b800030020000200700062
:102c0400838070004609dd00ca00de008100710087
:102c14004600dd0000026a0081826a001e00900006
:102c2400ae0090004008de00010020006101600059
:102c34006000b80003002000020070008380700070
:102c44004709dd00c900de00810071004700dd0096
:102c540000046a0081846a001e009000ae009000a7
:102c64004008de00010020004809dd004800de00c5
:102c740000007100c808de004909dd004700de00dd
:102c840000007100c708de00610060006022b80027
:102c94000100200000027200818272001e00900078
:102ca400ae0090004008de00010020004809dd006d
:102cb4004800de0000007100c808de004a09dd009b
:102cc4004600de0000007100c608de0061016000fd
:102cd4006000b800030020000200700083807000d0
:102ce400000040008180480000026a0081826a007e
:102cf4001e009000ae0090004008de00010020009d
:102d04004809dd004800de0000007100c808de004c
:102d14004b09dd004500de0000007100c508de003f
:102d2400610160006000b800030020000200700030
:102d3400838070004209dd00ce00de008100710056
:102d44004200dd0000026a0081826a001e009000d9
:102d5400ae0090004008de00010020004809dd00bc
:102d64004800de0000007100c808de004c09dd00e8
:102d74004400de0000007100c408de006101600050
:102d84006000b8000300200002007000838070001f
:102d94004309dd00cd00de00810071004300dd0049
:102da40000026a0081826a001e009000ae0090005a
:102db4004008de00010020004809dd004800de0074
:102dc40000007100c808de004d09dd004300de008c
:102dd40000007100c308de00610160006000b800fb
:102de4000300200002007000838070004409dd00ad
:102df400cc00de00810071004400dd0000026a00a6
:102e040081826a001e009000ae0090004008de003f
:102e1400010020004809dd004800de0000007100c8
:102e2400c808de004e09dd004200de00000071002b
:102e3400c208de00610160006000b80003002000e9
:102e440002007000838070004509dd00cb00de00c5
:102e5400810071004500dd0000026a0081826a0081
:102e64001e009000ae0090004008de00010020002b
:102e74004809dd004800de0000007100c808de00db
:102e84008100d1000080d300610160006000b800bf
:102e94000300200002007000838070004609dd00fa
:102ea400ca00de00810071004600dd0000026a00f5
:102eb40081826a001e009000ae0090004008de008f
:102ec400010020004809dd004800de000000710018
:102ed400c808de00610160006000b8000300200043
:102ee40002007000838070004709dd00c900de0025
:102ef400810071004700dd0000006a0081806a00e3
:102f0400c808dd000080fd00804078000040eb0030
:102f140000006c0081806c00c000dd000000200017
:102f240000006b0081806b004f04be000080fa003b
:102f3400000006000a00fa00889fbe008a9fbe00b7
:102f44008c9fbe0040079800200020000100200054
:102f540020079800310798003a6b84004b6b84007b
:102f64002e00900067004000800078004e00900022
:102f740018330700000478002e0090006900400018
:102f8400800078004e0090001233070000004000db
:102f9400000474002e0090006b0040008000780054
:102fa4004e0090000b3307004200dd000004740063
:102fb4002e0090006d004000800078004e009000cc
:102fc400043307004300dd00000074000a01be0062
:102fd400000278000402e900030033008301d100f9
:102fe4000281d300fbff37000200be0061006000d5
:102ff4006044b8000100200000047400818474005f
:103004001c6b84002d6b84002e0090006f00400028
:10301400800078004e009000ee3207000005780032
:103024002e00900071004000800078004e00900057
:10303400e832070000004000000575002e009000f3
:1030440073004000800078004e009000e1320700d9
:103054004200dd00000575002e0090007500400060
:10306400800078004e009000da3207004300dd0053
:10307400000075000c01be00000278000402e900a3
:10308400030033008301d1000281d300fbff37002a
:103094000200be00610160006000b800030020006f
:1030a40002007000838070000000400081804800ae
:1030b40000057400818574001c6b84002d6b8400f2
:1030c4002e00900077004000800078004e009000b1
:1030d400c0320700000478002e0090007900400000
:1030e400800078004e009000ba32070000004000d3
:1030f400000474002e0090007b00400080007800e3
:103104004e009000b33207004200dd00000474005a
:103114002e0090007d004000800078004e0090005a
:10312400ac3207004300dd00000074000c01be0057
:10313400000278000402e900030033008301d10097
:103144000281d300fbff37000200be006101600072
:103154006000b8000300200002007000838070004b
:103164004209dd00ce00de00810071004200dd0076
:1031740000057500818575003c6b84004d6b8400ef
:103184002e0090007f004000800078004e009000e8
:1031940090320700000478002e0090001002b00066
:1031a400800078004e0090008a3207000000400042
:1031b400000474002e0090003002b00080007800fb
:1031c4004e009000833207004200dd0000047400ca
:1031d4002e0090005002b000800078004e00900055
:1031e4007c3207004300dd00000074000c01be00c7
:1031f400000278000402e900030033008301d100d7
:103204000281d300fbff37000200be0061016000b1
:103214006000b8000300200002007000838070008a
:103224004309dd00cd00de00810071004300dd00b4
:1032340000057500818575001c6b84002d6b84006e
:103244002e0090007002b000800078004e009000c4
:1032540060320700000478002e0090009002b00055
:10326400800078004e0090005a32070000004000b1
:10327400000474002e009000b002b00080007800ba
:103284004e009000533207004200dd000004740039
:103294002e009000d002b000800078004e00900014
:1032a4004c3207004300dd00000074000c01be0036
:1032b400000278000402e900030033008301d10016
:1032c4000281d300fbff37000200be0061016000f1
:1032d4006000b800030020000200700083807000ca
:1032e4004409dd00cc00de00810071004400dd00f3
:1032f400001f750001977500506b8400616b84009a
:103304001e017800820178008301e9000300330084
:103314008100d1000080d300fbff37006101600011
:103324006000b80003002000020070008380700079
:103334004f06be004f05be004f04be000080fa00d9
:10334400000006000e00fa00881f7800300798007d
:10335400014f9800124f98003e00900020079800fb
:103364003e009000f3fe0700204798008000eb0029
:103374002e0090001732070000047800510020004e
:103384002e0090001332070000046c00910020000e
:103394002e0090000f32070000046c00a1002000f2
:1033a4002e0090000b32070000046c00c1002000c6
:1033b4002e0090000732070000046c00e10020009a
:1033c4002e0090000332070000046c00f10020007e
:1033d4002e009000ff31070000046c001101200052
:1033e4002e009000fb31070000046c003101200026
:1033f4002e009000f731070000046c0081012000ca
:103404002e009000f331070000046c0091012000ad
:103414002e009000ef31070000046c00b101200081
:103424002e009000eb31070000046c00d101200055
:103434002e009000e731070000046c0031022000e8
:103444002e009000e331070000046c00710220009c
:103454002e009000df31070000046c009102200070
:103464002e009000db31070000046c00a102200054
:103474002e009000d731070000046c00b102200038
:103484002e009000d3310700000f6c000e4890000e
:103494000080fb00600798001e4890000004e000d4
:1034a400040032002e4090000080fb00500798007a
:1034b400020037008000eb00510798006e01900075
:1034c400de009000010069001e0f68003e009000bd
:1034d40011002000e53107003e0090001e01780035
:1034e400f1022000963107002e4090000080fb007e
:1034f4004f0478000080fa00000006000800fa007b
:103504002007980061479800724798000040eb003c
:10351400204798000000eb00000f780010003700ef
:103524006e4090008080fb001e0078000088de0062
:10353400e14060007e4190002e00900081ff070072
:103544008080fb001e0078000008dd0080407800c9
:103554002e40900000c07000204798001e0fe80025
:10356400700020009e0f1000edff34002e409000ec
:103574000080fb000080fa00000006000e00fa0044
:10358400300798004207980053079800414f98006d
:103594006000b80010079800210798003000200050
:1035a400000f78001f0037001e0078004301dd0083
:1035b4004e009000de009000820178008301e90053
:1035c400030033008100d1000080d300fbff3700eb
:1035d400804078004e4990003e009000c7ff0700ed
:1035e4000081fb00030020001e0078004300dd0082
:1035f400800078008100e9000300330002014100eb
:1036040083814900fbff37001e009000ae0090004c
:103614000200700083807000100798002107980052
:103624001e0fe9001e00e000dfff3d001e009000b9
:10363400ae0090000080fa00000006000600fa00c8
:1036440010079800210798001e0090008001eb00ed
:103654000001eb008000eb00273107009e00900082
:103664000000eb00c00098000000eb00000f7800a1
:1036740009003700500020009e0050002e009000ea
:1036840013310700004178001e0090009e0078006e
:10369400043107001e0fe800500020009e0f1000a8
:1036a400f4ff34000080fa00000006000e00fa0067
:1036b40020079800320798004307980054079800a1
:1036c400650798003e019000ce0190005e009000d6
:1036d400ee009000001f6900019769008040eb0034
:1036e4001e01be002e009000a4ff0700de00900023
:1036f4002e009000410098000080fa0000000600af
:103704001200fa00400798005207980063079800d7
:1037140074079800050f98007e0190008e099000b0
:103724005e009000ee009000000169008181690054
:1037340011c0b3004e00900090ff070020079800ce
:10374400310798002e019000be0190007e00900089
:103754008e089000001f6900019769009e007800a0
:103764004e009000410098000080fa00000006001e
:103774001e00fa00889fbe00500798006107980059
:103784006e0090001000780001002000f20f20006d
:103794000300200000027800810278000200780013
:1037a4008300780000016200018062006102b800b9
:1037b40074079800050f98007e0090008e08900012
:1037c400c000dd000000200070079800010f980081
:1037d4007e0090008e0890006112b8007407980073
:1037e400050f98007e0190008e0990000200700081
:1037f40083807000c803dd00060020006e00900086
:103804000080e8001000780001002000f20f200082
:103814000300200000027800810278000200780092
:103824008300780000016200018062006102b80038
:10383400140f9800250f98001e089000ae08900001
:10384400c000dd0000002000100f9800210f980038
:103854001e089000ae0890006112b800140f980082
:10386400250f98001e099000ae0990000200700018
:1038740083807000c000dd0000002000000373009e
:10388400818373006e009000640040001000780093
:1038940001002000f20f2000030020000002780045
:1038a4008102780002007800830078000001620041
:1038b400018062006102b800340f9800450f98003f
:1038c4003e089000ce089000c000dd0000002000fb
:1038d400300f9800410f98003e089000ce089000e9
:1038e4006112b800340f9800450f98003e0990000b
:1038f400ce0990000200700083807000c808dd00cb
:103904000080fd00804078000040eb00000373005d
:10391400818373006e009000660040001000780000
:1039240001002000f20f20000300200000027800b4
:1039340081027800020078008300780000016200b0
:10394400018062006102b800540f9800650f98006e
:103954005e089000ee089000c000dd00000020002a
:10396400500f9800610f98005e089000ee089000d8
:103974006112b800540f9800650f98005e0990001a
:10398400ee09900002007000838070000000730054
:1039940081807300300798004107980030002000b0
:1039a40020079800330037002e00900063001000b9
:1039b40000004000800078006e0090000084400009
:1039c4002e0090006300100000004000800078008a
:1039d4006e00900000804000900478002e0090005b
:1039e4004301dd003e009000ce009000820178008b
:1039f4008301e900030033008100d1000080d3007b
:103a0400fbff3700804078000041eb005e0090002f
:103a1400bafe07000080fb0000806c00000c7800f8
:103a24002e00900063001000000040008000780029
:103a34006e009000808440002e009000630010000f
:103a440000004000800078006e009000008040007c
:103a5400100478005e00900036fd07004800dd0089
:103a640000006c00800c78002e0090000000e9003b
:103a7400200798002e0090000000e000caff3d00df
:103a8400010420005e00900039f80700008fbe009a
:103a94006e009000680140001e00be004808de0071
:103aa4000100200080007800f00f200000806000fa
:103ab400000978006e009000680140006e009000dc
:103ac40068004000900178006e009000680040009b
:103ad400900078006e0090006800400010007800ac
:103ae4000000d100808068006e00900068004000f3
:103af400100078004200de00808068006e009000b4
:103b040068004000100078004300de0080806800f8
:103b14006e00900068004000100078004400de0051
:103b2400808068006e0090006800400010007800fb
:103b34004500de00808068006e0090006800400050
:103b4400100078004600de00808068006e0090005f
:103b540068004000100078004700de000080680024
:103b64000000a200610060004800dd0000807100d8
:103b7400000978006e0090006a0140001e00be003b
:103b84004008de000100200080007800f00f2000d3
:103b940000806000000978006e0090006a01400017
:103ba4006e0090006a004000900178006e00900062
:103bb4006a004000900078006e0090006a004000a7
:103bc400100078000000d100808068006e00900032
:103bd4006a004000100078004200de008080680027
:103be4006e0090006a004000100078004300de0080
:103bf400808068006e0090006a0040001000780029
:103c04004400de00808068006e0090006a0040007e
:103c1400100078004500de00808068006e0090008f
:103c24006a004000100078004600de0080806800d2
:103c34006e0090006a004000100078004700de002b
:103c4400008068000000a200610060004800dd0000
:103c540000807100000978006e0090006c01400043
:103c64001e00be00480add004800de0000007200ad
:103c7400c808de0080007800f00f2000008060009b
:103c8400000978006e0090006c0140006e00900006
:103c94006c004000900178006e0090006c004000c1
:103ca400900078006e0090006c00400010007800d6
:103cb4000000d100808068006e0090006c0040001d
:103cc400100078004200de00808068006e009000e2
:103cd4006c004000100078004300de008080680023
:103ce4006e0090006c004000100078004400de007c
:103cf400808068006e0090006c0040001000780026
:103d04004500de00808068006e0090006c0040007a
:103d1400100078004600de00808068006e0090008d
:103d24006c004000100078004700de00008068004e
:103d34000000a200610060004800dd000080710006
:103d4400000978006e0090006e0140009e0078002b
:103d5400f00f200000806000000978006e009000e1
:103d64006e0140006e0090006e00400090017800eb
:103d74006e0090006e004000900078006e0090008d
:103d84006e004000100078000000d10080806800c0
:103d94006e0090006e004000100078004200de00cb
:103da400808068006e0090006e0040001000780073
:103db4004300de00808068006e0090006e004000ca
:103dc400100078004400de00808068006e009000df
:103dd4006e004000100078004500de00808068001e
:103de4006e0090006e004000100078004600de0077
:103df400808068006e0090006e0040001000780023
:103e04004700de00008068000000a200610060003e
:103e14004800dd0000807100000978006e00900009
:103e2400e8004000420020005e009000782e070069
:103e34004f04be000080fa00000006001e00fa00d5
:103e4400889fbe0040079800510798005e009000cc
:103e54001000780001002000f20f20000300200071
:103e64000002780081027800020078008300780064
:103e740000016200018062006102b80074079800ca
:103e8400050f98007e0090008e089000c000dd00b1
:103e94000000200070079800010f98007e00900039
:103ea4008e0890006112b80074079800050f9800fe
:103eb4007e0190008e0990000200700083807000e3
:103ec400c803dd00060020005e0090000080e800ca
:103ed4001000780001002000f20f200003002000f1
:103ee40000027800810278000200780083007800e4
:103ef40000016200018062006102b800140f9800a2
:103f0400250f98001e089000ae089000c000dd0048
:103f140000002000100f9800210f98001e08900048
:103f2400ae0890006112b800140f9800250f980095
:103f34001e099000ae09900002007000838070009a
:103f4400c000dd00000020000003730081837300c3
:103f54005e00900064004000100078000100200022
:103f6400f20f200003002000000278008102780094
:103f74000200780083007800000162000180620082
:103f84006102b800340f9800450f98003e08900075
:103f9400ce089000c000dd0000002000300f980023
:103fa400410f98003e089000ce0890006112b800be
:103fb400340f9800450f98003e099000ce099000f8
:103fc4000200700083807000c808dd000080fd00de
:103fd400804078000040eb0000037300818373008d
:103fe4005e00900066004000100078000100200090
:103ff400f20f200003002000000278008102780004
:1040040002007800830078000001620001806200f1
:104014006102b800540f9800650f98005e08900084
:10402400ee089000c000dd0000002000500f980052
:10403400610f98005e089000ee0890006112b800cd
:10404400540f9800650f98005e099000ee099000e7
:104054000200700083807000000073008180730090
:104064002007980031079800010620004e009000b8
:10407400bff607000004be008040eb006011b800ea
:104084004e0090003dfd0700001f6c0001976c007e
:104094008001eb00630798002e009000be009000a2
:1040a400be0f5000ae8f580002003a0014002000ea
:1040b400640798006e0090004f04be000080fa0070
:1040c400000006003600fa00889fbe00000f98002a
:1040d400110f98001e0890001000780001002000c5
:1040e400f20f200003002000000278008102780013
:1040f4000200780083007800000162000180620001
:104104006102b800340f9800450f98003e089000f3
:10411400ce089000c000dd0000002000300f9800a1
:10412400410f98003e089000ce0890006112b8003c
:10413400340f9800450f98003e099000ce09900076
:104144000200700083807000c803dd0006002000b8
:104154001e0890000080e800100078000100200094
:10416400f20f200003002000000278008102780092
:104174000200780083007800000162000180620080
:104184006102b800540f9800650f98005e08900013
:10419400ee089000c000dd0000002000500f9800e1
:1041a400610f98005e089000ee0890006112b8005c
:1041b400540f9800650f98005e099000ee09900076
:1041c4000200700083807000c000dd000000200049
:1041d40000037300818373001e0890006400400094
:1041e4001000780001002000f20f200003002000de
:1041f40000027800810278000200780083007800d1
:1042040000016200018062006102b800740f98002e
:10421400051798007e0890008e109000c000dd0005
:1042240000002000700f9800011798007e0890008d
:104234008e1090006112b800740f98000517980052
:104244007e0990008e11900002007000838070003f
:10425400c808dd000080fd00804078000040eb00cd
:1042640000037300818373001e0890006600400001
:104274001000780001002000f20f2000030020004d
:104284000002780081027800020078008300780040
:1042940000016200018062006102b80014179800f6
:1042a400251798001e109000ae109000c000dd008d
:1042b4000000200010179800211798001e1090008d
:1042c400ae1090006112b8001417980025179800da
:1042d4001e119000ae1190000200700083807000e7
:1042e40000007300818073006007980071079800d4
:1042f4001e089000680040001000780001002000b3
:10430400f20f2000030020000002780081027800f0
:1043140002007800830078000001620001806200de
:104324006102b80034179800451798003e109000b9
:10433400ce109000c000dd0000002000301798006f
:10434400411798003e109000ce1090006112b80002
:1043540034179800451798003e119000ce11900034
:104364000200700083807000c803dd000600200096
:104374001e0890006a004000100078000100200030
:10438400f20f200003002000000278008102780070
:10439400020078008300780000016200018062005e
:1043a4006102b80054179800651798005e109000d9
:1043b400ee109000c000dd000000200050179800af
:1043c400611798005e109000ee1090006112b80022
:1043d40054179800651798005e119000ee11900034
:1043e4000200700083807000c000dd000000200027
:1043f40000037300818373001e0890006c0040006a
:104404001000780001002000f20f200003002000bb
:1044140000027800810278000200780083007800ae
:1044240000016200018062006102b8007417980004
:10443400051f98007e1090008e189000c000dd00cb
:104444000000200070179800011f98007e10900053
:104454008e1890006112b80074179800051f980018
:104464007e1190008e19900002007000838070000d
:10447400c808dd000080fd00804078000040eb00ab
:1044840000037300818373001e0890006e004000d7
:104494001000780001002000f20f2000030020002b
:1044a400000278008102780002007800830078001e
:1044b40000016200018062006102b800141f9800cc
:1044c400251f98001e189000ae189000c000dd0053
:1044d40000002000101f9800211f98001e18900053
:1044e400ae1890006112b800141f9800251f9800a0
:1044f4001e199000ae1990000200700083807000b5
:1045040000007300818073004007980051079800f1
:1045140011c0b3006e019000fe0190000e089000df
:1045240016fc0700200798003107980001042000ba
:104534000e0890008ef507000004be008040eb00da
:104544006011b8000e0890000cfc0700001f6c00fe
:1045540001976c008001eb00230f98004e0090003f
:10456400de009000be0f1000ae8f180002003a006b
:1045740014002000240f98002e0890004f04be0061
:104584000080fa00000006000800fa0020079800e6
:1045940031079800010620002e00900074f50700f2
:1045a400008fbe001e00be004808de00010020008f
:1045b40080007800f00f2000808060003e009000b2
:1045c400010878003e009000100178003e00900041
:1045d400900078003e009000100078000000d100a8
:1045e400808068003e009000100078004200de00e9
:1045f400808068003e009000100078004300de00d8
:10460400808068003e009000100078004400de00c6
:10461400808068003e009000100078004500de00b5
:10462400808068003e009000100078004600de00a4
:10463400808068003e009000100078004700de0093
:10464400008068000000a200610060004800dd00f6
:10465400800071003e009000010878003e00900048
:104664000081e8001e00be004008de0001002000ba
:1046740080007800f00f20000080600000097800be
:104684003e0090000081e8003e0090000080e800b9
:10469400900178003e0090000080e80090007800cf
:1046a4003e0090000080e800100078000000d10077
:1046b400808068003e0090000080e80010007800d0
:1046c4004200de00808068003e0090000080e80028
:1046d400100078004300de00808068003e009000f7
:1046e4000080e800100078004400de00808068004c
:1046f4003e0090000080e800100078004500de00d5
:10470400808068003e0090000080e800100078007f
:104714004600de00808068003e0090000080e800d3
:10472400100078004700de00008068000000a2004e
:10473400610060004800dd0000807100000978001d
:104744003e009000640140001e00be00c809dd0068
:104754004800de0000807100c808de008000780098
:10476400f00f200000806000000978003e009000f7
:10477400640140003e009000640040009001780015
:104784003e00900064004000900078003e009000dd
:1047940064004000100078000000d10080806800b0
:1047a4003e00900064004000100078004200de00eb
:1047b400808068003e009000640040001000780093
:1047c4004300de00808068003e00900064004000ea
:1047d400100078004400de00808068003e009000f5
:1047e40064004000100078004500de00808068000e
:1047f4003e00900064004000100078004600de0097
:10480400808068003e009000640040001000780042
:104814004700de00008068000000a2006100600024
:104824004800dd0000807100000978003e0090001f
:10483400660140009e007800f00f200000806000b8
:10484400000978003e009000660140003e009000a0
:1048540066004000900178003e0090006600400031
:10486400900078003e009000660040001000780040
:104874000000d100808068003e0090006600400087
:10488400100078004200de00808068003e00900046
:1048940066004000100078004300de00808068005d
:1048a4003e00900066004000100078004400de00e6
:1048b400808068003e009000660040001000780090
:1048c4004500de00808068003e00900066004000e5
:1048d400100078004600de00808068003e009000f2
:1048e40066004000100078004700de000080680089
:1048f4000000a200610060004800dd00008071003b
:104904000009780042002000be0090002e009000b4
:10491400bf2b07000080fa00000006000a00fa001e
:10492400889fbe001007980021079800320798005e
:10493400430798000000eb00000f780023003700c5
:104944001e00780000004000800078002e009000d7
:10495400808440001e007800000040008000780041
:104964002e00900000804000100478000041eb000d
:104974008040eb001e009000e0fa07000080fb007e
:1049840000006c00800c78001e00780000004000dd
:10499400800078002e009000808440001e00780083
:1049a40000004000800078002e009000008040004d
:1049b400100478001e0090005ef907004800dd0036
:1049c40000006c00800c78001e0fe8009e00780048
:1049d4003e009000808f5000d9ff39000000eb00aa
:1049e400000f7800150037003e00900000004000e2
:1049f400800078002e009000808440003e009000eb
:104a040000004000800078002e00900000804000ec
:104a1400100478000041eb008040eb001e00900081
:104a240048fa07008080fb001e0078000008dd00c3
:104a340000006c00800c78001e0fe8009e007800d7
:104a44004e009000808f5000e7ff39004f04be00f5
:104a54000080fa00000006000200fa00000f78004f
:104a64009e007800e0d62800e000980010002000a6
:104a74000080fa00000006000200fa009ec0a900af
:104a8400f00f200070248800f00f200050248800cc
:104a940020002000302588000000eb00402588001d
:104aa4008644a900f009200080248800f009200031
:104ab400602488008804a800002021004800de004b
:104ac400c02488009424a8000000eb00b0248800cf
:104ad4000000eb00602588009424a9000040eb004e
:104ae400004f7800070037001e80fb00c200dd0085
:104af40000202100008140006000b8000089be0051
:104b04001e4fe80070c0b3009e4f1000f6ff360041
:104b1400d0002000502588000200370080002000cb
:104b2400502488008ac4bf00684060000004e0008c
:104b3400faff3a000040eb00caf0b7000040eb0077
:104b4400d5f0b700d6d0bf0060406000d6f0b70003
:104b5400d7d0bf0060406000d7f0b70094a4a9008c
:104b64000040eb00004f78000d0037001e80fb0072
:104b740080004000a00d2100808040000000eb0078
:104b8400800878001e80fb0080004000400e210059
:104b9400808040000000eb00800878001e4fe80091
:104ba40010c0b3009e4f1000f0ff3600802021009b
:104bb400d08688000040eb00d2f0b7000000eb0084
:104bc400808688000080fa00000006003600f800a5
:104bd400809fbe00829fbe00849fbe00869fbe0051
:104be4003400f80000002000a00188000200fa0050
:104bf40080868000e10f50000a003a0094c4bf0090
:104c04000044b2000004e00006003a00f00f200067
:104c1400502488008c04a8008c84a8002000200064
:104c24008086880080c4bf00704060000004e000fb
:104c34000700320082c4bf00704060000004e0003e
:104c4400030032000001200000248800a2000700b5
:104c540088c4bf00624060000004e000020032002b
:104c64008ec0a900730037008ac4bf006140600091
:104c74000004e000180032008cc4bf0061406000f2
:104c84000004e000140032007bff07009ec0a8006f
:104c94004000200080868800400f2100109088008a
:104ca40080c0b30000f2b7001120210091407800c9
:104cb40030c0b30000c0600001f2b7001120210031
:104cc40091407800c0c8b30000c0700001f2b70082
:104cd40010002000502488008ac4bf007040600087
:104ce4000004e000070032008cc4bf007040600084
:104cf4000004e000030032006d0007000001200002
:104d0400502488008ac4bf00644060000004e000ae
:104d14000a0032008cc4bf00644060000004e0005c
:104d240006003200120020008000eb003007200053
:104d3400212b070040002000502488008ac4bf00b3
:104d440001c8b300014060000004e0000600320026
:104d54008cc4bf0001c8b300014060000004e0003f
:104d6400010032003b0007008ac4bf0062406000bb
:104d74000004e0000a0032008cc4bf0062406000fe
:104d84000004e00006003200120020008000eb0066
:104d9400f0ff2700082b0700f00f20007024880084
:104da40080868000e30f500002003e008ec0a90000
:104db400200037008cc4bf00684060000004e0009d
:104dc4001b0032000040eb00004f78001500370054
:104dd4008ac4bf00684060000004e0001400320090
:104de40090248000ecf0b70080002000502488005c
:104df400ecd0bf008080fb00000f2000008060002a
:104e04000000e00002003a003d0007000400370003
:104e1400c10e21000001eb0020072000e62a070054
:104e24001e4fe80030c0b3009e4f1000e8ff36006c
:104e34008ec0a9000080fa003400f9004f03be00c0
:104e44004f02be004f01be004f00be003600f90005
:104e5400004006000000fa00aac4bf0062406000df
:104e64000004e0000e0032000087800090409000b3
:104e740000c8b30080cf500008003a00d0868000fc
:104e84009040900040c8b30080cf500003003a0027
:104e940001878000c0c8b30090409800aa24a900ec
:104ea40000082000502488000080fa00000006005a
:104eb4000000fa008284a800000120005024880029
:104ec4000001eb008000eb0050072000ba2a070025
:104ed4000080fa00000006000000fa000001eb0068
:104ee4008000eb0040072000b32a07008284a90059
:104ef40000012000002488000080fa000000060061
:104f04000200fa00ecd0bf008080fb00b0ff2f004d
:104f1400008060000000e00035003a00ecd0bf00e3
:104f24008080fb00c00f2000008060004280de0013
:104f34004200dd0080007800002021000080400055
:104f4400008788000087800010878800210e2100d8
:104f5400200e2100104078000024a2008048780030
:104f64000087800010409000c2c3b30082406000fc
:104f740040c3b30080cf50001b003a00008780007c
:104f840090009000c00f2100808f500014003a0060
:104f940001878000400f2100900098000040eb0042
:104fa400004f78000b0037001e80fb008000780063
:104fb400400f2100008140001e80fb00800078002b
:104fc400c00f2100008040001040780000497800a4
:104fd4001e4fe80070c0b3009e4f1000f2ff360071
:104fe4000c000700090037002800070007003700fd
:104ff400ecd0bf008080fb00b0ff2f000080600079
:10500400e80f500001003a00380007000080fa0061
:10501400000006000000fa00d08680009040900056
:1050240000c8b30000c060000004e00003003200c8
:10503400d18680000040eb00904098000040eb00d7
:10504400e8f0b7000040eb00e9f0b700cbd0bf00b8
:1050540060406000cbf0b700ccd0bf00604060007f
:10506400ccf0b7000040eb00caf0b70078000700ae
:105074000001eb008000eb00300020004e2a070006
:105084000b0207000080fa00000006000000fa008e
:10509400e9d0bf00e24f500002003a000e030700bf
:1050a4001000370046000700708780000000e00011
:1050b4000a003a001187800080c0b300804878005d
:1050c40011878000400f2100900098001187800014
:1050d400c0c8b30090409800020037000000eb0005
:1050e400708788000080fa00000006000200fa00c1
:1050f400d0868000104090000080fb004600de0057
:1051040061406000004f7800a10d2100a00d210036
:10511400104078000024a200804878008086800037
:10512400e80f50000b003a00f6d0bf000080fb00ef
:10513400b0248800b02480000000e00003003200a6
:105144000001200080868800020037004000200013
:1051540080868800e9d0bf00e14f500015003a0076
:10516400d1868000c00f21009000980059020700ea
:10517400e8d0bf00e24f500004003a00d18680001e
:1051840040c8b300904098000b0037001e04e000b4
:1051940004003a00d186800080ccb300904098008f
:1051a40005003700d186800080c8b3009040980085
:1051b40001003700020007000080fa00000006002a
:1051c4000200fa000040eb00e9f0b700d18680004d
:1051d4000040eb0090409800d08680000020a200a0
:1051e400000f78009e0078000040eb00904098008b
:1051f400510d21009140780000c8b30000c0600048
:105204000004e00010003200d8d0bf008080fb0012
:10521400d9d0bf000080fb004800dd000100700011
:105224000000e00007003200d8d0bf008080fb00ff
:10523400d9d0bf000080fb004800dd0001007000f1
:1052440000000100d5f0a9000080fa00000006006b
:105254000400fa00f4d0bf000046b2000004e000ed
:1052640058003a00f5d0bf000080fb006101b9008e
:10527400028fbe00b0002000010020001e01be000d
:10528400800f5100818f59004e003e001e00be0069
:105294000060010024003700250037004900370072
:1052a40023003700470037000600370009003700a5
:1052b400400037000b003700080037001e0037009d
:1052c40033003700caf0a8008000200080868800e0
:1052d4003c003700a40007003a003700fd02070035
:1052e40038003700220d2100f00f200080006100fb
:1052f400c8d0bf006040600001407000c8f0b70033
:10530400c810de00c9d0bf006040600001407000da
:10531400c9f0b700ca10a80010c0b300cbf0b700a2
:10532400caf0a800270037000e0107002500370047
:105334002600070023003700f8d0bf000080fb00e0
:1053440080007800e00d210000804000000178001a
:10535400f00f200080006100c8d0bf0060406000f2
:1053640001407000c8f0b700c810de00c9d0bf000b
:105374006040600001407000c9f0b700ca10a80086
:1053840010c0b300cbf0b700caf0a8000d0037007e
:10539400caf0a800f8d0bf008080fb00620f210093
:1053a40012417800e00d210000804000024878009e
:1053b400040037000001eb008000eb002000200017
:1053c4007d2907000080fa00000006000400fa00ae
:1053d400f6d0bf00e14f50000d003a00f4d0bf00fa
:1053e4007f4060000004e00009003a00caf0a80011
:1053f400f5d0bf00e34f500003003a001000200036
:1054040070868800020037000000eb007086880078
:10541400f6d0bf000004e00051003a00f4d0bf0011
:105424007f406000e24f50004d003a00f8d0bf00ca
:105434006f4060000004e00049003200caf0a80098
:10544400f8d0bf0001c8b300014060000004e000d0
:1054540009003a00f8d0bf006f4060000080fb00f4
:1054640080004000400e21000080400010007800c1
:105474001007980008003700f8d0bf006f406000a4
:105484000080fb0080004000a00d2100008040004f
:105494001000780010079800f5d0bf00e34f5000cb
:1054a40004003a009e00900040c8b3009040980069
:1054b4002b003700f8d0bf006f4060000080fb0075
:1054c4000000400080007800a04a200000804000d6
:1054d400000f78001e00780090407800d0cfb30011
:1054e40080c060001e00780001487800810f210010
:1054f4009140780000c8b30000c060000004e000e0
:105504000c0032009e0090000040eb009040980098
:105514008e80e8000e80e800104078000024a2008d
:10552400804878009e00900000c4b300904098002a
:105534000b0037009e00900080c8b3009040980094
:105544008e80e8000e80e800104078000024a2005d
:10555400804878009e00900080ccb3009040980072
:105564000080fa00000006000200fa00410f21004a
:105574009140780000c8b30080cf500077003a0013
:1055840000ccb300caf0b700f7d0bf000080fb0026
:10559400000f78001e007800e20f50001b0032005c
:1055a4001e007800e30f50003e0032001e00780019
:1055b400e10f5000010032006600370042c42800a9
:1055c400f00f200080006100c8d0bf006040600080
:1055d40001407000c8f0b700c810de00c9d0bf0099
:1055e4006040600001407000c9f0b700cbd0bf003c
:1055f400604060002041b300cbf0b700ccd0bf00c6
:1056040060406000ccf0b70054003700f6d0bf0013
:105614000080fb00000040008000780020cd2800be
:105624000080400010017800f00f2000800061002d
:10563400c8d0bf006040600001407000c8f0b700ef
:10564400c810de00c9d0bf00604060000140700097
:10565400c9f0b700c8d0bf008080fb00c9d0bf002c
:105664000080fb004800dd00010070000080e800bd
:1056740010017800f00f200080006100cbd0bf0043
:105684006040600001407000cbf0b700c810de003d
:10569400ccd0bf006040600001407000ccf0b70087
:1056a4002e003700f6d0bf00e24f500026003e0027
:1056b400f6d0bf000080fb000000400080007800ae
:1056c40040cd28000080400010017800f00f200039
:1056d40080006100c8d0bf006040600001407000dd
:1056e400c8f0b700c810de00c9d0bf006040600039
:1056f40001407000c9f0b700c8d0bf008080fb0033
:10570400c9d0bf000080fb004800dd00010070002c
:10571400104078000081fb00f00f20008000610041
:10572400cbd0bf006040600001407000cbf0b700f8
:10573400c810de00ccd0bf006040600001407000a3
:10574400ccf0b700050037000040eb00caf0b7000a
:10575400020037000040eb00caf0b7000080fa00f6
:10576400000006000400fa000040eb00fcf0b70063
:105774000040eb00fdf0b700f4d0bf007f406000b4
:105784000080fb00100798001e009000e10f5000fd
:105794000f0032001e009000e20f50000e00320095
:1057a4001e0090000000e000010032002a003700d3
:1057b400caf0a80070868000e10f500026003a006d
:1057c400fcd0bf000014a000fcf0b700220037009a
:1057d400caf0a80020003700caf0a800f8d0bf0023
:1057e40001c8b300014060000004e00009003a0071
:1057f400f8d0bf006f4060000080fb0080004000d4
:10580400400e21000080400010007800000f780056
:1058140008003700f8d0bf006f4060000080fb0034
:1058240080004000a00d210000804000100078009e
:10583400000f78001e007800104090000080fb00ec
:105844004200de00610060000004e000020032005b
:1058540010c0b300fcf0b700cad0bf0001c8b30049
:10586400014060000004e0000f003200c20f21007c
:10587400f00f200080006100c8d0bf0060406000cd
:1058840001407000c8f0b700c810de00c9d0bf00e6
:105894006040600001407000c9f0b700ca10a80061
:1058a40020c0b300cbf0b7000080fa00000006006f
:1058b4000000fa0094a4a900cad0bf0001c8b30034
:1058c400014060000004e00024003a00d5d0bf008d
:1058d40001c8b300014060000004e000120032007f
:1058e40020c0b300e9f0b700d18680000040eb008f
:1058f40080487800d186800080ccb3009040980026
:105904001187800080c0b300804878001187800030
:10591400c00f2100900098001187800080ccb30054
:1059240090409800690037001187800080c0b30060
:105934008048780011878000400f21009000980073
:1059440011878000c0c8b30090409800d1868000c1
:1059540040c8b300904098005c003700d5d0bf0029
:1059640001c8b300014060000004e00057003a00a1
:10597400f4d0bf0001c8b300014060000004e0009f
:1059840041003200fad0bf008080fb00fbd0bf0092
:105994000080fb004800dd00010070000001780079
:1059a400cbd0bf008080fb00ccd0bf000080fb00c8
:1059b4004800dd0001007000800f5100120031002a
:1059c400fad0bf008080fb00fbd0bf000080fb004a
:1059d4004800dd000100700000017800f00f200095
:1059e40080006100cbd0bf006040600001407000c7
:1059f400cbf0b700c810de00ccd0bf006040600020
:105a040001407000ccf0b7003200070010c0b300b2
:105a1400e9f0b7001187800080c0b30080487800a7
:105a240011878000400f21009000980011878000aa
:105a340000c8b300904098000000eb007087880015
:105a44000187800080c0b30080487800018780000f
:105a5400400f2100900098000187800040c8b300e7
:105a6400904098001000200070878800d186800044
